:020000040800F2
:10000000002800203D1000088D1000088D10000809
:100010008D1000088D1000088D10000800000000F1
:100020000000000000000000000000008D1000082B
:100030008D100008000000008D1000088D100008D1
:100040008D1000088D1000088D1000088D1000081C
:100050008D1000088D10000871010008950100083E
:10006000B9010008DD010008010200088D10000838
:100070008D1000088D1000088D1000088D100008EC
:100080008D1000088D1000088D1000088D100008DC
:100090008D1000088D1000088D1000088D100008CC
:1000A0008D1000088D1000088D1000088D100008BC
:1000B000AD0B0008910C00088D1000088D10000891
:1000C0008D1000088D1000088D1000088D1000089C
:1000D0008D100008B10F00088D1000088D10000869
:1000E0008D1000088D100008000000008D10000821
:1000F0008D1000088D1000088D1000088D1000086C
:100100008D1000088D1000088D1000088D1000085B
:100110008D1000088D1000088D1000088D1000084B
:100120008D1000088D1000088D1000088D1000083B
:1001300010B5054C237833B9044B13B10448AFF321
:1001400000800123237010BD0C000020000000007F
:10015000D810000808B5034B1BB103490348AFF39F
:10016000008008BD0000000010000020D81000082A
:1001700080B500AF054B1B689847054B1B68044AC8
:1001800043F00103136000BF80BD00BF28000020C2
:100190001404014080B500AF054B5B689847054BE0
:1001A0001B68044A43F00203136000BF80BD00BF18
:1001B000280000201404014080B500AF054B9B6867
:1001C0009847054B1B68044A43F00403136000BFC3
:1001D00080BD00BF280000201404014080B500AF9E
:1001E000054BDB689847054B1B68044A43F008033E
:1001F000136000BF80BD00BF280000201404014030
:1002000080B500AF054B1B699847054B1B68044A36
:1002100043F01003136000BF80BD00BF2800002022
:100220001404014080B483B000AF0346FB710B4659
:10023000BB7113467B71BB790F2B00F2BE80FB793B
:10024000022B7AD0022B00F3B180002B02D0012BBD
:100250003AD0ABE0BB79072B17D85A4B1B68BA7959
:1002600092000F2101FA02F2D2431146554A0B4087
:100270001360544B1B687979BA79920001FA02F243
:100280001146504A0B43136092E0BB790F2B00F2EA
:100290008F80BB79083BBB714B4B1B68BA799200CE
:1002A0000F2101FA02F2D2431146474A0B40136074
:1002B000454B1B687979BA79920001FA02F211462E
:1002C000414A0B43136073E0BB79072B17D83F4BB0
:1002D0001B68BA7992000F2101FA02F2D24311464B
:1002E0003A4A0B401360394B1B687979BA7992000E
:1002F00001FA02F21146354A0B4313605AE0BB790A
:100300000F2B57D8BB79083BBB71314B1B68BA79AF
:1003100092000F2101FA02F2D24311462C4A0B40FF
:1003200013602B4B1B687979BA79920001FA02F2BB
:100330001146274A0B4313603CE0BB79072B17D8C3
:10034000244B1B68BA7992000F2101FA02F2D243C2
:100350001146204A0B4013601E4B1B687979BA790D
:10036000920001FA02F211461A4A0B43136023E08D
:10037000BB790F2B20D8BB79083BBB71164B1B6890
:10038000BA7992000F2101FA02F2D2431146124AC1
:100390000B401360104B1B687979BA79920001FA0F
:1003A00002F211460C4A0B43136005E000BF04E063
:1003B00000BF02E000BF00E000BF00BF0C37BD4639
:1003C00080BC70470008014004080140000C014057
:1003D000040C0140001001400410014080B483B0BF
:1003E00000AF0346FB710B46BB7113467B71BB79B3
:1003F0000F2B67D8FB79022B40D0022B5BDC002B44
:1004000002D0012B1DD056E07B79012B0AD1304B55
:100410001B68BA79012101FA02F211462C4A0B43FA
:1004200013604AE07B79002B47D1294B1B68BA79CE
:10043000012101FA02F2D2431146254A0B40136012
:100440003BE07B79012B0AD1224B1B68BA79012151
:1004500001FA02F211461F4A0B4313602FE07B7929
:10046000002B2CD11B4B1B68BA79012101FA02F237
:10047000D2431146174A0B40136020E07B79012BD1
:100480000AD1154B1B68BA79012101FA02F2114613
:10049000114A0B43136014E07B79002B11D10E4BF2
:1004A0001B68BA79012101FA02F2D24311460A4AC5
:1004B0000B40136005E000BF04E000BF02E000BF96
:1004C00000E000BF00BF0C37BD4680BC704700BFD6
:1004D0000C0801400C0C01400C10014080B483B0AA
:1004E00000AF0346FB71FB791F2B05D8FB79012276
:1004F0009A40094B1A600AE0FB793B2B07D8FB793D
:10050000203BFB71FB7901229A40044B1A6000BF2B
:100510000C37BD4680BC704700E100E004E100E01C
:1005200080B400AF124B4FF480321A60114B01229D
:100530001A6000BF0E4B1B685B0C03F00103002B1D
:10054000F8D00C4B1B680B4A43F010031360094BA7
:100550001B68084A43F480731360064B1B68054A06
:1005600043F40063136000BFBD4680BC704700BF0A
:10057000001002400410024080B483B000AF034674
:100580000A46FB711346BB71BB791F2B2BD8FB7935
:10059000022B1CD0022B25DC002B02D0012B0BD010
:1005A00020E0134B1B68BA79012101FA02F21146CF
:1005B0000F4A0B43136016E00E4B1B68BA790121FA
:1005C00001FA02F211460B4A0B4313600BE00A4B8F
:1005D0001B68BA79012101FA02F21146064A0B435F
:1005E000136000E000BF00BF0C37BD4680BC704701
:1005F000141002401C1002401810024080B500AFD9
:10060000012203210120FFF70DFE01220421012018
:10061000FFF708FE012203210020FFF703FE01225D
:1006200004210020FFF7FEFD012205210020FFF735
:10063000F9FD012206210020FFF7F4FD0122072128
:100640000020FFF7EFFD012208210020FFF7EAFD5F
:1006500001220B210020FFF7E5FD01220C210020E3
:10066000FFF7E0FD012205210120FFF7DBFD01225C
:1006700006210120FFF7D6FD012207210120FFF707
:10068000D1FD012208210120FFF7CCFD0122092123
:100690000120FFF7C7FD01220A210120FFF7C2FD5B
:1006A00001220B210120FFF7BDFD01220C210120B9
:1006B000FFF7B8FD00BF80BD80B582B000AF7860A5
:1006C0000B46FB70FB79002B40F0CF803B79012B70
:1006D00063D1FB78A24AD35CDB09DBB21A46052161
:1006E0000120FFF77BFEFB789D4AD35C9B09DBB2C0
:1006F00003F00103DBB21A4606210120FFF76EFE6C
:10070000FB78974AD35C5B09DBB203F00103DBB2F1
:100710001A4607210120FFF761FEFB78904AD35C5F
:100720001B09DBB203F00103DBB21A4608210120EA
:10073000FFF754FEFB788A4AD35CDB08DBB203F098
:100740000103DBB21A4609210120FFF747FEFB78BF
:10075000834AD35C9B08DBB203F00103DBB21A4689
:100760000A210120FFF73AFEFB787D4AD35C5B0843
:10077000DBB203F00103DBB21A460B210120FFF7C5
:100780002DFEFB78764AD35C03F00103DBB21A46F8
:100790000C210120FFF722FE5AE13B79002B40F0AB
:1007A0005781FB786E4AD35CDB09DBB21A46032122
:1007B0000020FFF713FEFB78694AD35C9B09DBB28C
:1007C00003F00103DBB21A4604210020FFF706FE06
:1007D000FB78634AD35C5B09DBB203F00103DBB255
:1007E0001A4605210020FFF7F9FDFB785C4AD35C2F
:1007F0001B09DBB203F00103DBB21A46062100201D
:10080000FFF7ECFDFB78564AD35CDB08DBB203F064
:100810000103DBB21A4607210020FFF7DFFDFB785A
:100820004F4AD35C9B08DBB203F00103DBB21A46EC
:1008300008210020FFF7D2FDFB78494AD35C5B0812
:10084000DBB203F00103DBB21A460B210020FFF7F5
:10085000C5FDFB78424AD35C03F00103DBB21A46C4
:100860000C210020FFF7BAFDF2E0FB79012B40F0EC
:10087000EF803B79012B75D1FB78394AD35CDB09DA
:10088000DBB2DB43DBB21A4605210120FFF7A6FDF0
:10089000FB78334AD35C9B09DBB203F00103DBB284
:1008A000DB43DBB21A4606210120FFF797FDFB78F8
:1008B0002B4AD35C5B09DBB203F00103DBB2DB4301
:1008C000DBB21A4607210120FFF788FDFB78244A96
:1008D000D35C1B09DBB203F00103DBB2DB43DBB209
:1008E0001A4608210120FFF779FDFB781C4AD35CEA
:1008F000DB08DBB203F00103DBB2DB43DBB21A46F9
:1009000009210120FFF76AFDFB78154AD35C9B089B
:10091000DBB203F00103DBB2DB43DBB21A460A2190
:100920000120FFF75BFDFB780D4AD35C5B08DBB26F
:1009300003F00103DBB2DB43DBB21A460B210120DB
:10094000FFF74CFDFB78064AD35C03F00103DBB2F2
:10095000DB43DBB21A460C210120FFF73FFD77E0B5
:10096000000000203B79002B72D1FB783A4AD35C1F
:10097000DB09DBB2DB43DBB21A4603210020FFF7C1
:100980002DFDFB78344AD35C9B09DBB203F00103F5
:10099000DBB2DB43DBB21A4604210020FFF71EFD69
:1009A000FB782D4AD35C5B09DBB203F00103DBB2B9
:1009B000DB43DBB21A4605210020FFF70FFDFB7871
:1009C000254AD35C1B09DBB203F00103DBB2DB4336
:1009D000DBB21A4606210020FFF700FDFB781E4A15
:1009E000D35CDB08DBB203F00103DBB2DB43DBB239
:1009F0001A4607210020FFF7F1FCFB78164AD35C6A
:100A00009B08DBB203F00103DBB2DB43DBB21A4627
:100A100008210020FFF7E2FCFB780F4AD35C5B085B
:100A2000DBB203F00103DBB2DB43DBB21A460B217E
:100A30000020FFF7D3FCFB78074AD35C03F00103E7
:100A4000DBB2DB43DBB21A460C210020FFF7C6FC09
:100A500000BF0837BD4680BD0000002080B582B0D1
:100A600000AF7860FB79002B06D17B79B979002241
:100A70001846FFF7B3FC08E0FB79012B05D17B7921
:100A8000B97901221846FFF7A9FC00BF0837BD4617
:100A900080BD000080B584B000AF7860184B1B6843
:100AA000FB60184B1B68BB60F868FFF7D7FFB8689E
:100AB000FFF7D4FF7968144BA3FB0123DA08134630
:100AC0009B0013445B00CA1AD3B21946F868FFF7BB
:100AD000F3FD7B680C4AA2FB0323D9080A4BA3FB56
:100AE0000123DA0813469B0013445B00CA1AD3B2F1
:100AF0001946B868FFF7E0FD00BF1037BD4680BD5E
:100B0000F0100008F4100008CDCCCCCC80B400AFBD
:100B10000D4B1B680C4A23F0010313600A4B0022A3
:100B20005A60094B00229A60074B1B68064A23F063
:100B300002031360044B1B68034A23F00403136091
:100B400000BFBD4680BC704710E000E080B483B0B9
:100B500000AF7860144B00229A60134A7B684FF410
:100B60007A7101FB03F353600F4B1B680E4A43F08D
:100B70000103136000BF0C4B1B681B0C03F0010347
:100B8000002BF8D0084B1B68074A23F001031360C1
:100B9000054B00225A60044B00229A6000BF0C37BC
:100BA000BD4680BC704700BF10E000E080B500AFDC
:100BB0004FF080431B6903F00103002B0AD04FF074
:100BC00080431B694FF0804223F0010313612E4BD9
:100BD0001B6898474FF080431B6903F00203002B0A
:100BE0000ED04FF080431B694FF0804223F0020388
:100BF0001361264B1B68002B02D0244B1B689847BF
:100C00004FF080431B6903F00403002B0ED04FF01C
:100C100080431B694FF0804223F0040313611B4B98
:100C20005B68002B02D0194B5B6898474FF08043FC
:100C30001B6903F00803002B0ED04FF080431B69A3
:100C40004FF0804223F008031361104B9B68002B88
:100C500002D00E4B9B6898474FF080431B6903F00E
:100C60001003002B0ED04FF080431B694FF08042E1
:100C700023F010031361054BDB68002B02D0034BFC
:100C8000DB68984700BF80BDA800002068000020F6
:100C900080B500AF2E4B1B6903F00103002B08D079
:100CA0002B4B1B692A4A23F001031361294B5B6814
:100CB0009847274B1B6903F00203002B0CD0244BF1
:100CC0001B69234A23F002031361234B1B69002B8A
:100CD00002D0214B1B6998471D4B1B6903F004038D
:100CE000002B0CD01A4B1B69194A23F00403136123
:100CF000194B5B69002B02D0174B5B699847144B6B
:100D00001B6903F00803002B0CD0114B1B69104A20
:100D100023F008031361104B9B69002B02D00E4B8C
:100D20009B6998470A4B1B6903F01003002B0CD0FA
:100D3000074B1B69064A23F010031361064BDB695E
:100D4000002B02D0044BDB69984700BF80BD00BF79
:100D500000040040A80000206800002080B500AF1B
:100D6000FFF74CFC00F0A2F801220D210120FFF753
:100D700059FA01220E210120FFF754FA01220F2116
:100D80000120FFF74FFA00BF80BD000080B500AF23
:100D9000424B1B780133DAB2404B1A70404B1B8830
:100DA000232B23D93F4B00221A703D4B1B88233B3A
:100DB0001846FFF76FFE00220F210120FFF70EFB00
:100DC00001220D210120FFF709FB354B1B88013B58
:100DD0009AB2334B1A80344B1B78002B5BD15220D4
:100DE00000F0C8F8304B01221A7054E02C4B1B88DD
:100DF0001E2B23D92B4B01221A70294B1B881E3B1B
:100E00001846FFF747FE00220D210120FFF7E6FA02
:100E100001220E210120FFF7E1FA214B1B88013B43
:100E20009AB21F4B1A80204B1B78012B33D15920CB
:100E300000F0A0F81C4B02221A702CE0184B1B8803
:100E4000002B22D0174B02221A70154B1B88184614
:100E5000FFF720FE00220E210120FFF7BFFA01223A
:100E60000F210120FFF7BAFA0D4B1B88013B9AB204
:100E70000B4B1A800C4B1B78022B0CD1472000F037
:100E800079F8094B00221A7005E0044B00221A7011
:100E9000034B37221A8000BF80BD00BFB90000207D
:100EA0000A000020B8000020BA00002080B483B0FF
:100EB00000AF68237B604FF480733B603B6840F277
:100EC000DC52934204D97B6801337B6000233B6092
:100ED000264B00221A60254BDB68244A23F48053FA
:100EE000D360224BDB68214A23F48063D3601F4B1D
:100EF000DB681E4A23F02003D3601C4BDB681B4ACF
:100F000023F04003D360194BDB68184A23F08003B9
:100F1000D360164BDB68154A43F00803D360134BCC
:100F2000DB68124A43F00403D360104B1B690F4A7D
:100F300023F4805313610D4B1B690C4A23F40053B7
:100F400013617B681A013B680949A1FB03135B0924
:100F5000064913438B60054BDB68044A43F4005396
:100F6000D36000BF0C37BD4680BC704700380140DD
:100F70001F85EB5180B483B000AF0346FB710B4A71
:100F8000FB79536000BF094B1B689B0903F0010309
:100F9000002BF8D0054B1B68044A23F04003136074
:100FA00000BF0C37BD4680BC704700BF0038014011
:100FB00080B500AF034B00221A60034B1B689847B3
:100FC00000BF80BD00380140BC00002080B500AFEC
:100FD000FFF7A6FA00210220FFF7CEFA0221022035
:100FE000FFF7CAFA03210220FFF7C6FA0421022004
:100FF000FFF7C2FA0E210220FFF7BEFA2520FFF705
:101000006DFA1C20FFF76AFAFFF7F8FA0A220921A5
:101010000020FFF707F904220A210020FFF702F958
:10102000FFF774FDFFF742FFFFF798FEFFF7AEFEF4
:101030004FF47A60FFF78AFDF8E700000D48854617
:10104000AFF300800C480D490D4A002302E0D4584C
:10105000C4500433C4188C42F9D30A4A0A4C002302
:1010600001E013600432A242FBD300F011F8FFF755
:10107000ADFFFEE700280020000000200C0000204B
:10108000001100080C000020C0000020FEE7000056
:1010900070B500260C4D0D4C641BA410A64209D15E
:1010A00000F01AF800260A4D0A4C641BA410A64250
:1010B00005D170BD55F8043B98470136EEE755F869
:1010C000043B98470136F2E7F8100008F8100008D2
:1010D000F8100008FC100008F8B500BFF8BC08BC08
:1010E0009E467047F8B500BFF8BC08BC9E467047E6
:0810F0000001030001010400EE
:0410F8005501000896
:0410FC0031010008B6
:0C1100003F065B4F666D7D077F6F370078
:040000050800103DA2
:00000001FF
