:020000040800F2
:1000000000280020B51B0008051C0008051C00087E
:10001000051C0008051C0008051C00080000000065
:10002000000000000000000000000000051C0008A7
:10003000051C000800000000051C0008051C000845
:10004000051C0008051C0008051C0008051C00080C
:10005000051C0008051C00086D0600089106000834
:10006000B5060008D9060008FD060008051C0008B2
:10007000051C0008051C0008051C0008051C0008DC
:10008000051C0008051C0008051C0008051C0008CC
:10009000051C0008051C0008051C0008051C0008BC
:1000A000051C0008051C0008051C0008051C0008AC
:1000B0000D110008F1110008051C0008051C0008BE
:1000C000051C0008051C0008051C0008051C00088C
:1000D000051C0008C1130008051C0008B514000821
:1000E000051C0008051C000800000000051C000895
:1000F000051C0008051C0008051C0008051C00085C
:10010000051C0008051C0008051C0008051C00084B
:10011000051C0008051C0008051C0008051C00083B
:10012000051C0008051C0008051C0008051C00082B
:1001300010B5054C237833B9044B13B10448AFF321
:1001400000800123237010BD140000200000000077
:10015000501C000808B5034B1BB103490348AFF31B
:10016000008008BD0000000018000020501C00089E
:1001700080F0004002E000BF81F0004142001FBF5C
:100180005FEA410392EA030F7FEA226C7FEA236C65
:100190006AD04FEA1262D2EB1363C1BFD21841405A
:1001A00048404140B8BF5B42192B88BF704710F0F0
:1001B000004F40F4000020F07F4018BF404211F093
:1001C000004F41F4000121F07F4118BF494292EAFB
:1001D000030F3FD0A2F1010241FA03FC10EB0C0027
:1001E000C3F1200301FA03F100F0004302D54942B4
:1001F00060EB4000B0F5000F13D3B0F1807F06D361
:1002000040084FEA310102F10102FE2A51D2B1F158
:10021000004F40EBC25008BF20F0010040EA03004D
:100220007047490040EB0000013A28BFB0F5000FCD
:10023000EDD2B0FA80FCACF1080CB2EB0C0200FA83
:100240000CF0AABF00EBC25052421843BCBFD040D2
:100250001843704792F0000F81F4000106BF80F44C
:1002600000000132013BB5E74FEA41037FEA226C0F
:1002700018BF7FEA236C21D092EA030F04D092F0DA
:10028000000F08BF0846704790EA010F1CBF00200E
:10029000704712F07F4F04D1400028BF40F000406B
:1002A000704712F100723CBF00F50000704700F08B
:1002B000004343F0FE4040F4000070477FEA2262B2
:1002C00016BF08467FEA23630146420206BF5FEA83
:1002D000412390EA010F40F4800070474FF0000383
:1002E00004E000BF10F0004348BF40425FEA000C4A
:1002F00008BF704743F0964301464FF000001CE0F2
:1003000050EA010208BF70474FF000030AE000BF47
:1003100050EA010208BF704711F0004302D5404285
:1003200061EB41015FEA010C02BF844601460020F7
:1003300043F0B64308BFA3F18053A3F50003BCFA12
:100340008CF2083AA3EBC25310DB01FA02FC6344BF
:1003500000FA02FCC2F12002BCF1004F20FA02F2C6
:1003600043EB020008BF20F00100704702F12002B9
:1003700001FA02FCC2F1200250EA4C0021FA02F21A
:1003800043EB020008BF20EADC7070474FF0FF0C1F
:100390001CEAD0521EBF1CEAD15392EA0C0F93EA1A
:1003A0000C0F6FD01A4480EA010C400218BF5FEABC
:1003B00041211ED04FF0006343EA501043EA51112F
:1003C000A0FB01310CF00040B1F5000F3EBF490029
:1003D00041EAD3715B0040EA010062F17F02FD2A2D
:1003E0001DD8B3F1004F40EBC25008BF20F0010010
:1003F000704790F0000F0CF0004C08BF49024CEA27
:10040000502040EA51207F3AC2BFD2F1FF0340EAB8
:10041000C250704740F400004FF00003013A5DDC29
:1004200012F1190FDCBF00F000407047C2F100026A
:10043000410021FA02F1C2F1200200FA02FC5FEA57
:10044000310040F1000053EA4C0308BF20EADC70A1
:10045000704792F0000F00F0004C02BF400010F413
:10046000000F013AF9D040EA0C0093F0000F01F0C0
:10047000004C02BF490011F4000F013BF9D041EAE2
:100480000C018FE70CEAD15392EA0C0F18BF93EAE4
:100490000C0F0AD030F0004C18BF31F0004CD8D10E
:1004A00080EA010000F00040704790F0000F17BF95
:1004B00090F0004F084691F0000F91F0004F14D0DB
:1004C00092EA0C0F01D142020FD193EA0C0F03D133
:1004D0004B0218BF084608D180EA010000F0004036
:1004E00040F0FE4040F40000704740F0FE4040F411
:1004F000400070474FF0FF0C1CEAD0521EBF1CEAB0
:10050000D15392EA0C0F93EA0C0F69D0A2EB0302CD
:1005100080EA010C49024FEA402037D04FF0805367
:1005200043EA111143EA10130CF000408B4238BF2C
:100530005B0042F17D024FF4000C8B4224BF5B1A3A
:1005400040EA0C00B3EB510F24BFA3EB510340EA88
:100550005C00B3EB910F24BFA3EB910340EA9C0036
:10056000B3EBD10F24BFA3EBD10340EADC001B01A6
:1005700018BF5FEA1C1CE0D1FD2A3FF650AF8B424A
:1005800040EBC25008BF20F0010070470CF0004C57
:100590004CEA50207F32C2BFD2F1FF0340EAC25082
:1005A000704740F400004FF00003013A37E792F043
:1005B000000F00F0004C02BF400010F4000F013AA1
:1005C000F9D040EA0C0093F0000F01F0004C02BF9C
:1005D000490011F4000F013BF9D041EA0C0195E705
:1005E0000CEAD15392EA0C0F08D142027FF47DAF9E
:1005F00093EA0C0F7FF470AF084676E793EA0C0F8E
:1006000004D14B023FF44CAF08466EE730F0004C8B
:1006100018BF31F0004CCAD130F000427FF45CAF1B
:1006200031F000437FF43CAF5FE700BF42000ED2E1
:10063000B2F1FE4F0BD34FF09E03B3EB126209D41D
:100640004FEA002343F0004323FA02F070474FF0D3
:100650000000704712F1610F01D1420202D14FF048
:10066000FF3070474FF00000704700BF80B500AF0B
:10067000054B1B689847054B1B68044A43F0010370
:10068000136000BF80BD00BF300000201404014093
:1006900080B500AF054B5B689847054B1B68044A63
:1006A00043F00203136000BF80BD00BF3000002094
:1006B0001404014080B500AF054B9B689847054B7B
:1006C0001B68044A43F00403136000BF80BD00BFF1
:1006D000300000201404014080B500AF054BDB68FA
:1006E0009847054B1B68044A43F00803136000BF9A
:1006F00080BD00BF300000201404014080B500AF71
:10070000054B1B699847054B1B68044A43F01003CF
:10071000136000BF80BD00BF300000201404014002
:1007200080B483B000AF0346FB710B46BB71134628
:100730007B71BB790F2B00F2BE80FB79022B7AD044
:10074000022B00F3B180002B02D0012B3AD0ABE09A
:10075000BB79072B17D85A4B1B68BA7992000F2127
:1007600001FA02F2D2431146554A0B401360544B32
:100770001B687979BA79920001FA02F21146504A5F
:100780000B43136092E0BB790F2B00F28F80BB7993
:10079000083BBB714B4B1B68BA7992000F2101FAE1
:1007A00002F2D2431146474A0B401360454B1B6887
:1007B0007979BA79920001FA02F21146414A0B4363
:1007C000136073E0BB79072B17D83F4B1B68BA79CE
:1007D00092000F2101FA02F2D24311463A4A0B402D
:1007E0001360394B1B687979BA79920001FA02F2E9
:1007F0001146354A0B4313605AE0BB790F2B57D88B
:10080000BB79083BBB71314B1B68BA7992000F2151
:1008100001FA02F2D24311462C4A0B4013602B4BD3
:100820001B687979BA79920001FA02F21146274AD7
:100830000B4313603CE0BB79072B17D8244B1B6894
:10084000BA7992000F2101FA02F2D2431146204AEE
:100850000B4013601E4B1B687979BA79920001FA3C
:1008600002F211461A4A0B43136023E0BB790F2BA7
:1008700020D8BB79083BBB71164B1B68BA79920034
:100880000F2101FA02F2D2431146124A0B401360C3
:10089000104B1B687979BA79920001FA02F211467D
:1008A0000C4A0B43136005E000BF04E000BF02E008
:1008B00000BF00E000BF00BF0C37BD4680BC7047E2
:1008C0000008014004080140000C0140040C0140F4
:1008D000001001400410014080B483B000AF034613
:1008E000FB710B46BB7113467B71BB790F2B67D82D
:1008F000FB79022B40D0022B5BDC002B02D0012BBA
:100900001DD056E07B79012B0AD1304B1B68BA7998
:10091000012101FA02F211462C4A0B4313604AE00E
:100920007B79002B47D1294B1B68BA79012101FA49
:1009300002F2D2431146254A0B4013603BE07B791B
:10094000012B0AD1224B1B68BA79012101FA02F26C
:1009500011461F4A0B4313602FE07B79002B2CD1EB
:100960001B4B1B68BA79012101FA02F2D2431146EE
:10097000174A0B40136020E07B79012B0AD1154BFD
:100980001B68BA79012101FA02F21146114A0B43A0
:10099000136014E07B79002B11D10E4B1B68BA79E0
:1009A000012101FA02F2D24311460A4A0B401360B8
:1009B00005E000BF04E000BF02E000BF00E000BFB0
:1009C00000BF0C37BD4680BC704700BF0C0801401B
:1009D0000C0C01400C10014080B500AF0122032136
:1009E0000020FFF79DFE012204210020FFF798FE62
:1009F000012205210020FFF793FE0122062100209D
:100A0000FFF78EFE012207210020FFF789FE012259
:100A100008210020FFF784FE012206210120FFF7B4
:100A20007FFE012207210120FFF77AFE00BF80BD73
:100A300080B500AF002203210020FFF74DFF012207
:100A400004210020FFF748FF002205210020FFF7C6
:100A500043FF012206210020FFF73EFF002207216D
:100A60000020FFF739FF012208210020FFF734FFA3
:100A7000002206210120FFF72FFF0122072101207C
:100A8000FFF72AFF00BF80BD80B500AF0022032121
:100A90000020FFF721FF002204210020FFF71CFFA8
:100AA000002205210020FFF717FF00220621002069
:100AB000FFF712FF002207210020FFF70DFF0022A1
:100AC00008210020FFF708FF002206210120FFF780
:100AD00003FF002207210120FFF7FEFE00BF80BDBB
:100AE00080B483B000AF0346FB71FB791F2B05D8A0
:100AF000FB7901229A40094B1A600AE0FB793B2BF3
:100B000007D8FB79203BFB71FB7901229A40044B0B
:100B10001A6000BF0C37BD4680BC704700E100E0A2
:100B200004E100E080B400AF114B81221A60114B48
:100B300000221A6000BF0E4B1B685B0803F0010324
:100B4000002BF8D00B4B1B680A4A43F010031360CC
:100B5000084B1B68074A43F480731360054B1B68FE
:100B6000044A43F40063136000BFBD4680BC704775
:100B7000001002400410024080B483B000AF03466E
:100B80000A46FB711346BB71BB791F2B2BD8FB792F
:100B9000022B1CD0022B25DC002B02D0012B0BD00A
:100BA00020E0134B1B68BA79012101FA02F21146C9
:100BB0000F4A0B43136016E00E4B1B68BA790121F4
:100BC00001FA02F211460B4A0B4313600BE00A4B89
:100BD0001B68BA79012101FA02F21146064A0B4359
:100BE000136000E000BF00BF0C37BD4680BC7047FB
:100BF000141002401C1002401810024080B400AFD4
:100C00000D4B1B680C4A23F0010313600A4B0022B2
:100C10005A60094B00229A60074B1B68064A23F072
:100C200002031360044B1B68034A23F004031360A0
:100C300000BFBD4680BC704710E000E080B483B0C8
:100C400000AF7860144B00229A60134A7B684FF41F
:100C50007A7101FB03F353600F4B1B680E4A43F09C
:100C60000103136000BF0C4B1B681B0C03F0010356
:100C7000002BF8D0084B1B68074A23F001031360D0
:100C8000054B00225A60044B00229A6000BF0C37CB
:100C9000BD4680BC704700BF10E000E080B400AFEC
:100CA0004FF0804301229A624FF080434FF6FF726B
:100CB000DA624FF080434FF080421B6813604FF0C0
:100CC000804300225A624FF080431B684FF08042FD
:100CD00043F00103136000BFBD4680BC70470000B5
:100CE00080B483B000AF0346FB71FB79023B032B5A
:100CF00028D801A252F823F0090D00081B0D0008A6
:100D0000290D0008370D00084FF080431B684FF095
:100D1000804223F00103136015E00D4B1B680C4A61
:100D200023F0010313600EE00A4B1B68094A23F00D
:100D30000103136007E0084B1B68074A23F0010317
:100D4000136000E000BF00BF0C37BD4680BC704799
:100D50000004004000080040000C004080B483B054
:100D600000AF0346FB71FB79023B032B28D801A29D
:100D700052F823F0850D0008970D0008A50D000816
:100D8000B30D00084FF080431B684FF0804243F0E2
:100D90000103136015E00D4B1B680C4A43F001037F
:100DA00013600EE00A4B1B68094A43F0010313600D
:100DB00007E0084B1B68074A43F00103136000E09B
:100DC00000BF00BF0C37BD4680BC70470004004028
:100DD00000080040000C004080B584B000AF03461E
:100DE0000A46FB711346BB71FB79184600F018F9EF
:100DF000F860FB681B6823F00102FB681A60BB798E
:100E0000013B032B6ED801A252F823F01D0E0008FF
:100E10004F0E0008810E0008B30E0008FB689B69A6
:100E200043F00102FB689A61FB681B6A43F0010210
:100E3000FB681A62FB68DB6843F00202FB68DA6059
:100E4000FB68DB6843F00102FB68DA604BE0FB689B
:100E50009B6943F48072FB689A61FB681B6A43F0EC
:100E60001002FB681A62FB68DB6843F00402FB684F
:100E7000DA60FB68DB6843F00102FB68DA6032E0AD
:100E8000FB68DB6943F00102FB68DA61FB681B6AFF
:100E900043F48072FB681A62FB68DB6843F0080267
:100EA000FB68DA60FB68DB6843F00102FB68DA602C
:100EB00019E0FB68DB6943F48072FB68DA61FB6868
:100EC0001B6A43F48052FB681A62FB68DB6843F0DC
:100ED0001002FB68DA60FB68DB6843F00102FB6824
:100EE000DA6000E000BFFB681B6843F00102FB68AA
:100EF0001A6000BF1037BD4680BD00BF80B584B00A
:100F000000AF03463A60FB710B46BB71FB79184694
:100F100000F086F8F860BB79013B032B1ED801A2D4
:100F200052F823F0350F00083F0F0008490F000862
:100F3000530F0008FB685A6B3B681A600FE0FB68B0
:100F40009A6B3B681A600AE0FB68DA6B3B681A60D0
:100F500005E0FB681A6C3B681A6000E000BF00BF48
:100F60001037BD4680BD00BF80B584B000AF0346DA
:100F7000FB710B46BB7113467B71FB79184600F081
:100F80004FF8F860BB79013B032B43D801A252F81C
:100F900023F000BFA50F0008C10F0008DD0F0008F7
:100FA000F90F0008FB681B6A23F00202FB681A6253
:100FB000FB681B6A7A7952001A43FB681A622AE0BE
:100FC000FB681B6A23F02002FB681A62FB681B6A3D
:100FD0007A7952011A43FB681A621CE0FB681B6AAB
:100FE00023F40072FB681A62FB681B6A7A7952026A
:100FF0001A43FB681A620EE0FB681B6A23F4005276
:10100000FB681A62FB681B6A7A7952031A43FB6811
:101010001A6200E000BF00BF1037BD4680BD00BFB0
:1010200080B485B000AF0346FB710023FB60FB7901
:10103000023B032B17D801A252F823F04D100008F1
:10104000551000085B100008611000084FF0804345
:10105000FB6009E0074BFB6006E0074BFB6003E029
:10106000064BFB6000E000BFFB6818461437BD4626
:1010700080BC70470004004000080040000C0040A5
:1010800080B483B000AF03463A60FB710B46BB717E
:101090003B68002B0FD0FB79052B0CD8BB79042BB8
:1010A00009D8FB799A1EBB79013B0549920013448C
:1010B0003A6841F8232000BF0C37BD4680BC70471A
:1010C0007000002080B584B000AF03463960FB712A
:1010D000FB791846FFF7A4FFF860FB68DB6843F074
:1010E0000102FB68DA603B68002B08D0FB79052B16
:1010F00005D8FB79023B04493A6841F8232000BF38
:101100001037BD4680BD00BFB000002080B500AFE5
:101110004FF080431B6903F00103002B0AD04FF00E
:1011200080431B694FF0804223F0010313612E4B73
:101130001B6898474FF080431B6903F00203002BA4
:101140000ED04FF080431B694FF0804223F0020322
:101150001361264B1B68002B02D0244B1B68984759
:101160004FF080431B6903F00403002B0ED04FF0B7
:1011700080431B694FF0804223F0040313611B4B33
:101180005B68002B02D0194B5B6898474FF0804397
:101190001B6903F00803002B0ED04FF080431B693E
:1011A0004FF0804223F008031361104B9B68002B23
:1011B00002D00E4B9B6898474FF080431B6903F0A9
:1011C0001003002B0ED04FF080431B694FF080427C
:1011D00023F010031361054BDB68002B02D0034B97
:1011E000DB68984700BF80BDB00000207000002081
:1011F00080B500AF2E4B1B6903F00103002B08D014
:101200002B4B1B692A4A23F001031361294B5B68AE
:101210009847274B1B6903F00203002B0CD0244B8B
:101220001B69234A23F002031361234B1B69002B24
:1012300002D0214B1B6998471D4B1B6903F0040327
:10124000002B0CD01A4B1B69194A23F004031361BD
:10125000194B5B69002B02D0174B5B699847144B05
:101260001B6903F00803002B0CD0114B1B69104ABB
:1012700023F008031361104B9B69002B02D00E4B27
:101280009B6998470A4B1B6903F01003002B0CD095
:10129000074B1B69064A23F010031361064BDB69F9
:1012A000002B02D0044BDB69984700BF80BD00BF14
:1012B00000040040B00000207000002080B483B023
:1012C00000AF68237B604FF480733B603B6840F263
:1012D000DC52934204D97B6801337B6000233B607E
:1012E000264B00221A60254BDB68244A23F48053E6
:1012F000D360224BDB68214A23F48063D3601F4B09
:10130000DB681E4A23F02003D3601C4BDB681B4ABA
:1013100023F04003D360194BDB68184A23F08003A5
:10132000D360164BDB68154A43F00803D360134BB8
:10133000DB68124A43F00403D360104B1B690F4A69
:1013400023F4805313610D4B1B690C4A23F40053A3
:1013500013617B681A013B680949A1FB03135B0910
:10136000064913438B60054BDB68044A43F4005382
:10137000D36000BF0C37BD4680BC704700380140C9
:101380001F85EB5180B483B000AF0346FB710B4A5D
:10139000FB79536000BF094B1B689B0903F00103F5
:1013A000002BF8D0054B1B68044A23F04003136060
:1013B00000BF0C37BD4680BC704700BF00380140FD
:1013C00080B500AF034B00221A60034B1B6898479F
:1013D00000BF80BD00380140C000002080B500AFD4
:1013E0001F4BDB681E4A23F40053D3601C4BDB68A1
:1013F0001B4A23F48053D3604FF4165000F068F872
:1014000003461A46164B9A60154BDB68144A23F4C0
:101410008063D360124B1B69114A23F4405313615C
:101420000F4BDB680E4A43F00403D3600C4BDB68C0
:101430000B4A43F00803D360094BDB68084A43F0CA
:101440002003D360064BDB68054A23F08003D3609A
:10145000034BDB68024A43F40053D36000BF80BDF6
:101460000048004080B400AF034B5B68DBB2184615
:10147000BD4680BC704700BF0048004080B400AF4C
:10148000044BDB68034A43F02003D36000BFBD4632
:1014900080BC70470048004080B483B000AF7860E3
:1014A000034A7B68136000BF0C37BD4680BC7047A1
:1014B000C400002080B500AF044B1B68002B02D095
:1014C000024B1B68984700BF80BD00BFC4000020CE
:1014D00080B487B000AF78607B681B01174AB2FB0D
:1014E000F3F37B617B681B01154AB2FBF3F2154BEA
:1014F000A3FB02135B09642101FB03F3D31A1B0155
:101500003B613B6940F2DC52934204D97B69013371
:101510007B6100233B617B699BB21B019AB23B69F3
:101520000849A1FB03135B099BB21343FB81FB89B1
:1015300018461C37BD4680BC704700BF00127A00B9
:101540000008AF2F1F85EB5180B582B000AF00219E
:101550000120FFF711FB0023FB7134E0FB79334AD4
:10156000D25CFB793249CB5C19461046FFF734FC5C
:10157000FB792E4AD05CFB792D4AD35C00221946B8
:10158000FFF7F2FCFB792B4AD05CFB792A4AD35C4B
:1015900008221946FFF7C4F8FB79264AD05CFB798C
:1015A000254AD35C00221946FFF796F9FB79234AB6
:1015B000D05CFB79224AD35C01221946FFF7B0F8D0
:1015C000FB790133FB71FB79032BC7D9FFF766FB6E
:1015D0001C20FFF785FA154B1B78154A1178194A1C
:1015E0001846FFF74DFD114B5B78114A5178164AAA
:1015F0001846FFF745FD0D4B9B780D4A9178134A2D
:101600001846FFF73DFD094BDB78094AD178104AAF
:101610001846FFF735FD0F490220FFF753FDFFF78E
:10162000EDFA00BF0837BD4680BD00BF00000020B6
:1016300004000020F8000020080000200C0000201A
:101640001000002041170008D9170008751800087D
:10165000111900082517000880B582B000AF0346B5
:101660003960FB710220FFF779FBFB79274AD05CD8
:10167000FB79274AD35C01221946FFF72DF90F2089
:10168000FFF7DCFAFB79214AD05CFB79204AD35C76
:1016900000221946FFF720F9FB791E4A52F8233041
:1016A000022B2FD1FB791C4A52F82320FB791B49CE
:1016B00051F82330D31A1846FEF710FE03464FF0B8
:1016C00076511846FEF762FE03461846FEF7AEFF57
:1016D00003469BB21846FEF705FE0346104918461E
:1016E000FEF708FF03461846FEF7A0FF03469AB22E
:1016F0003B681A80FB79074A002142F82310022038
:10170000FFF7EEFA00BF0837BD4680BD0C00002091
:1017100010000020C8000020E8000020D8000020B1
:10172000743C694280B400AF044B1B680133034A28
:10173000136000BFBD4680BC704700BFFC000020A6
:1017400080B500AF1E4B1B68002B16D11C4B01222D
:101750001A601C4B1B781C4A11781C4A1846FFF76C
:10176000CDFB1B4B00221A60164B1B78164A1178D2
:1017700001221846FFF7F8FB20E0114B1B68012BF4
:101780001CD10F4B02221A600E4B1B780E4A1178A7
:10179000104A1846FFF7B2FB0E4B19680C4B1A683B
:1017A00013461B049B1A0B440A4A1360054B1B7813
:1017B000054A117800221846FFF7D6FB00BF80BD0E
:1017C000C80000200000002004000020D8000020F5
:1017D000FC000020E800002080B500AF1E4B5B68D5
:1017E000002B16D11C4B01225A601C4B5B781C4A03
:1017F00051781C4A1846FFF781FB1B4B00221A60E8
:10180000164B5B78164A517801221846FFF7ACFB5D
:1018100020E0114B5B68012B1CD10F4B02225A6058
:101820000E4B5B780E4A5178104A1846FFF766FB5C
:101830000F4B59680C4B1A6813461B049B1A0B4438
:101840000B4A5360054B5B78054A517800221846D5
:10185000FFF78AFB00BF80BDC80000200000002009
:1018600004000020DC000020FC000020EC00002030
:10187000E800002080B500AF1E4B9B68002B16D1FE
:101880001C4B01229A601C4B9B781C4A91781C4A85
:101890001846FFF733FB1B4B00221A60164B9B7850
:1018A000164A917801221846FFF75EFB20E0114BA3
:1018B0009B68012B1CD10F4B02229A600E4B9B7828
:1018C0000E4A9178104A1846FFF718FB0F4B99689B
:1018D0000C4B1A6813461B049B1A0B440B4A93606B
:1018E000054B9B78054A917800221846FFF73CFB90
:1018F00000BF80BDC80000200000002004000020C0
:10190000E0000020FC000020F0000020E8000020A3
:1019100080B500AF1E4BDB68002B16D11C4B01229B
:10192000DA601C4BDB781C4AD1781C4A1846FFF75A
:10193000E5FA1B4B00221A60164BDB78164AD17869
:1019400001221846FFF710FB20E0114BDB68012B4A
:101950001CD10F4B0222DA600E4BDB780E4AD17895
:10196000104A1846FFF7CAFA0F4BD9680C4B1A6891
:1019700013461B049B1A0B440B4AD360054BDB78C0
:10198000054AD17800221846FFF7EEFA00BF80BD65
:10199000C80000200000002004000020E400002017
:1019A000FC000020F4000020E800002080B500AF1B
:1019B000FFF7B8F800210220FFF7DEF8022102202D
:1019C000FFF7DAF803210220FFF7D6F804210220FE
:1019D000FFF7D2F800210120FFF7CEF80E210220F8
:1019E000FFF7CAF812210120FFF7C6F82520FFF7FC
:1019F00077F81C20FFF774F82720FFF771F80A2208
:101A000009210020FEF78CFE04220A210020FEF7A7
:101A100087FE0A220A210120FEF782FE04220B2102
:101A20000120FEF77DFE012200210120FEF778FE55
:101A3000002200210120FEF74FFF02220D2102208B
:101A4000FEF76EFE00220D210220FEF745FF022266
:101A50000E210220FEF764FE00220E210220FEF776
:101A60003BFF02220F210220FEF75AFE00220F2127
:101A70000220FEF731FFFFF767FDFFF7BFF8FFF722
:101A80001DFCFFF7ABFCFFF7F9FC4148FFF704FD35
:101A9000FEF7A2FFFEF7CCFF6420FFF7CFF800228D
:101AA00000210120FEF718FF3A490120FFF7D4FD7D
:101AB00039490220FFF7D0FD3220FFF7BFF8354B40
:101AC0001B88142B11D9344B1B881E2B0DD9FEF704
:101AD000AFFF5320FFF756FC2E490120FFF7BCFD56
:101AE0002D490220FFF7B8FD50E02A4B1B88142B2C
:101AF00019D8294B1B881E2B15D801220021012043
:101B0000FEF7EAFEFEF7C0FF4120FFF73BFC21494C
:101B10000120FFF7A1FD20490220FFF79DFD3220A3
:101B2000FFF78CF832E01C4B1B881E2B15D80122C6
:101B300000210120FEF7D0FEFEF77AFF4220FFF7DA
:101B400021FC14490120FFF787FD13490220FFF70C
:101B500083FD3220FFF772F89EE70E4B1B88142B93
:101B60009AD8012200210120FEF7B6FEFEF78CFF75
:101B70004320FFF707FC07490120FFF76DFD0649E9
:101B80000220FFF769FD3220FFF758F884E700BF15
:101B90009D1B0008020100200001002080B500AF5D
:101BA000FFF760FC03461A46014B1A7000BF80BD68
:101BB000040100200D488546AFF300800C480D4914
:101BC0000D4A002302E0D458C4500433C4188C4298
:101BD000F9D30A4A0A4C002301E013600432A242FE
:101BE000FBD300F011F8FFF7E1FEFEE7002800202C
:101BF0000000002014000020701C000814000020C9
:101C000008010020FEE7000070B500260C4D0D4CC9
:101C1000641BA410A64209D100F01AF800260A4D50
:101C20000A4C641BA410A64205D170BD55F8043BB4
:101C300098470136EEE755F8043B98470136F2E73E
:101C4000681C0008681C0008681C00086C1C000860
:101C5000F8B500BFF8BC08BC9E467047F8B500BF99
:081C6000F8BC08BC9E46704769
:041C6800550100081A
:041C6C00310100083A
:101C70000202020201020304000102030101010148
:041C80000001050654
:0400000508001BB51F
:00000001FF
